:100000000C94A2000C94BF000C94BF000C94BF0091
:100010000C94BF000C94BF000C94BF000C94BF0064
:100020000C94BF000C94BF000C94BF000C94BF0054
:100030000C94BF000C94BF000C94BF000C94BF0044
:100040000C94BF000C94BF000C94BF000C94BF0034
:100050000C94BF0072017E0132028A013202320228
:10006000320296013202320232023202320232028D
:1000700032023202A201AE013202BA01320232026F
:100080003202C6013202320232023202320232023D
:1000900032023202320232023202320232023202C0
:1000A00032023202320232023202320232023202B0
:1000B00032023202D201DE013202EA01320232029F
:1000C0003202F601320232023202320232023202CD
:1000D0003202320232023202320232023202320280
:1000E0003202320232023202320232023202320270
:1000F0003202320232023202320232023202320260
:10010000320232023202320232023202320232024F
:10011000320232023202320232023202320232023F
:10012000320232023202320232023202320232022F
:100130003202320202020E0232021A02320232028B
:100140003202260211241FBECFE5D8E0DEBFCDBFAC
:1001500010E0A0E6B0E0E2EFF4E002C005900D92FE
:10016000AC38B107D9F720E0ACE8B0E001C01D928F
:10017000A039B207E1F70E9467020C9477020C9451
:10018000000088BB611102C0DE9801C0DE9ADD9AD2
:1001900083ED90E30197F1F700C00000DD9818BAF5
:1001A0000895CF93DF93EC018881882339F021965D
:1001B00061E00E94C10089918111FACFDF91CF9156
:1001C000089589EF90E00197F1F700C0000080B337
:1001D000ECE8F0E080958F7090E09383828381B3A8
:1001E000809581BB89EF90E00197F1F700C0000096
:1001F00082B3809582BB89EF90E00197F1F700C050
:10020000000080B38095807F22813381A901482B33
:10021000CA0193838283089580EF81BB89EF90E0C8
:100220000197F1F700C000008FE082BB89EF90E0FA
:100230000197F1F700C0000008958FEF87BB8ABBDC
:1002400081BB89EF90E00197F1F700C0000012BA7E
:1002500089EF90E00197F1F700C0000083ED90E393
:100260000197F1F700C00000ECE8F0E01182108285
:100270001382128260E081E00E94C10083ED90E36E
:100280000197F1F700C0000060E088E30E94C10020
:1002900083ED90E30197F1F700C0000060E08FE08C
:1002A0000E94C10083ED90E30197F1F700C00000C8
:1002B00080E690E00E94D10060E080EC0E94C100E6
:1002C0000E940C010895CF93DF93E0918E00F0918E
:1002D0008F007197E837F10508F0C4C0E65DFF4F65
:1002E0000C9471028CE690E00E94D100ECE8F0E002
:1002F00080819181019691838083B7C08EE690E0E2
:100300000E94D100ECE8F0E0808191810196918318
:100310008083ABC080E790E00E94D100ECE8F0E081
:10032000808191810196918380839FC082E790E0D4
:100330000E94D100ECE8F0E08081918101969183E8
:10034000808393C084E790E00E94D100ECE8F0E065
:100350008081918101969183808387C086E790E0B8
:100360000E94D100ECE8F0E08081918101969183B8
:1003700080837BC088E790E00E94D100ECE8F0E049
:10038000808191810196918380836FC08AE790E09C
:100390000E94D100ECE8F0E0808191810196918388
:1003A000808363C08CE790E00E94D100ECE8F0E02D
:1003B0008081918101969183808357C08EE790E080
:1003C0000E94D100ECE8F0E0808191810196918358
:1003D00080834BC080E890E00E94D100ECE8F0E020
:1003E000808191810196918380833FC082E890E073
:1003F0000E94D100ECE8F0E0808191810196918328
:10040000808333C084E890E00E94D100ECE8F0E003
:100410008081918101969183808327C086E890E056
:100420000E94D100ECE8F0E08081918101969183F7
:1004300080831BC088E890E00E94D100ECE8F0E0E7
:10044000808191810196918380830FC08AE890E03A
:100450000E94D100ECE8F0E08081918101969183C7
:10046000808303C08BB380588BBBCCE8D0E01B8269
:100470001A820E940C01888199814197E4F060E022
:1004800081E00E94C10083ED90E30197F1F700C085
:10049000000080E690E00E94D10083ED90E3019798
:1004A000F1F700C0000060E080EC0E94C1001092F3
:1004B0008D0010928C009FE926E881E09150204049
:1004C0008040E1F700C00000DF91CF9108950E94C5
:1004D0001D0180B38F30E9F30E94E1000E946301A7
:1004E000F8CFEE0FFF1F0590F491E02D0994F894DA
:0204F000FFCF3C
:1004F20050524553532041204B455900310034009E
:1005020037002A0032003500380030003300360050
:0C05120039002300410042004300440077
:00000001FF
